{
  "contractName": "Riddler",
  "abi": [
    {
      "inputs": [],
      "stateMutability": "nonpayable",
      "type": "constructor"
    },
    {
      "anonymous": false,
      "inputs": [
        {
          "indexed": true,
          "internalType": "address",
          "name": "owner",
          "type": "address"
        },
        {
          "indexed": true,
          "internalType": "address",
          "name": "approved",
          "type": "address"
        },
        {
          "indexed": true,
          "internalType": "uint256",
          "name": "tokenId",
          "type": "uint256"
        }
      ],
      "name": "Approval",
      "type": "event"
    },
    {
      "anonymous": false,
      "inputs": [
        {
          "indexed": true,
          "internalType": "address",
          "name": "owner",
          "type": "address"
        },
        {
          "indexed": true,
          "internalType": "address",
          "name": "operator",
          "type": "address"
        },
        {
          "indexed": false,
          "internalType": "bool",
          "name": "approved",
          "type": "bool"
        }
      ],
      "name": "ApprovalForAll",
      "type": "event"
    },
    {
      "anonymous": false,
      "inputs": [
        {
          "indexed": true,
          "internalType": "address",
          "name": "previousOwner",
          "type": "address"
        },
        {
          "indexed": true,
          "internalType": "address",
          "name": "newOwner",
          "type": "address"
        }
      ],
      "name": "OwnershipTransferred",
      "type": "event"
    },
    {
      "anonymous": false,
      "inputs": [
        {
          "indexed": true,
          "internalType": "address",
          "name": "from",
          "type": "address"
        },
        {
          "indexed": true,
          "internalType": "address",
          "name": "to",
          "type": "address"
        },
        {
          "indexed": true,
          "internalType": "uint256",
          "name": "tokenId",
          "type": "uint256"
        }
      ],
      "name": "Transfer",
      "type": "event"
    },
    {
      "inputs": [
        {
          "internalType": "address",
          "name": "to",
          "type": "address"
        },
        {
          "internalType": "uint256",
          "name": "tokenId",
          "type": "uint256"
        }
      ],
      "name": "approve",
      "outputs": [],
      "stateMutability": "nonpayable",
      "type": "function"
    },
    {
      "inputs": [
        {
          "internalType": "address",
          "name": "owner",
          "type": "address"
        }
      ],
      "name": "balanceOf",
      "outputs": [
        {
          "internalType": "uint256",
          "name": "",
          "type": "uint256"
        }
      ],
      "stateMutability": "view",
      "type": "function"
    },
    {
      "inputs": [
        {
          "internalType": "uint256",
          "name": "tokenId",
          "type": "uint256"
        }
      ],
      "name": "getApproved",
      "outputs": [
        {
          "internalType": "address",
          "name": "",
          "type": "address"
        }
      ],
      "stateMutability": "view",
      "type": "function"
    },
    {
      "inputs": [
        {
          "internalType": "address",
          "name": "owner",
          "type": "address"
        },
        {
          "internalType": "address",
          "name": "operator",
          "type": "address"
        }
      ],
      "name": "isApprovedForAll",
      "outputs": [
        {
          "internalType": "bool",
          "name": "",
          "type": "bool"
        }
      ],
      "stateMutability": "view",
      "type": "function"
    },
    {
      "inputs": [],
      "name": "name",
      "outputs": [
        {
          "internalType": "string",
          "name": "",
          "type": "string"
        }
      ],
      "stateMutability": "view",
      "type": "function"
    },
    {
      "inputs": [],
      "name": "owner",
      "outputs": [
        {
          "internalType": "address",
          "name": "",
          "type": "address"
        }
      ],
      "stateMutability": "view",
      "type": "function"
    },
    {
      "inputs": [
        {
          "internalType": "uint256",
          "name": "tokenId",
          "type": "uint256"
        }
      ],
      "name": "ownerOf",
      "outputs": [
        {
          "internalType": "address",
          "name": "",
          "type": "address"
        }
      ],
      "stateMutability": "view",
      "type": "function"
    },
    {
      "inputs": [],
      "name": "renounceOwnership",
      "outputs": [],
      "stateMutability": "nonpayable",
      "type": "function"
    },
    {
      "inputs": [
        {
          "internalType": "uint256",
          "name": "",
          "type": "uint256"
        }
      ],
      "name": "riddlesSolvedBy",
      "outputs": [
        {
          "internalType": "address",
          "name": "",
          "type": "address"
        }
      ],
      "stateMutability": "view",
      "type": "function"
    },
    {
      "inputs": [
        {
          "internalType": "address",
          "name": "from",
          "type": "address"
        },
        {
          "internalType": "address",
          "name": "to",
          "type": "address"
        },
        {
          "internalType": "uint256",
          "name": "tokenId",
          "type": "uint256"
        }
      ],
      "name": "safeTransferFrom",
      "outputs": [],
      "stateMutability": "nonpayable",
      "type": "function"
    },
    {
      "inputs": [
        {
          "internalType": "address",
          "name": "from",
          "type": "address"
        },
        {
          "internalType": "address",
          "name": "to",
          "type": "address"
        },
        {
          "internalType": "uint256",
          "name": "tokenId",
          "type": "uint256"
        },
        {
          "internalType": "bytes",
          "name": "_data",
          "type": "bytes"
        }
      ],
      "name": "safeTransferFrom",
      "outputs": [],
      "stateMutability": "nonpayable",
      "type": "function"
    },
    {
      "inputs": [
        {
          "internalType": "address",
          "name": "operator",
          "type": "address"
        },
        {
          "internalType": "bool",
          "name": "approved",
          "type": "bool"
        }
      ],
      "name": "setApprovalForAll",
      "outputs": [],
      "stateMutability": "nonpayable",
      "type": "function"
    },
    {
      "inputs": [
        {
          "internalType": "bytes4",
          "name": "interfaceId",
          "type": "bytes4"
        }
      ],
      "name": "supportsInterface",
      "outputs": [
        {
          "internalType": "bool",
          "name": "",
          "type": "bool"
        }
      ],
      "stateMutability": "view",
      "type": "function"
    },
    {
      "inputs": [],
      "name": "symbol",
      "outputs": [
        {
          "internalType": "string",
          "name": "",
          "type": "string"
        }
      ],
      "stateMutability": "view",
      "type": "function"
    },
    {
      "inputs": [
        {
          "internalType": "uint256",
          "name": "tokenId",
          "type": "uint256"
        }
      ],
      "name": "tokenURI",
      "outputs": [
        {
          "internalType": "string",
          "name": "",
          "type": "string"
        }
      ],
      "stateMutability": "view",
      "type": "function"
    },
    {
      "inputs": [
        {
          "internalType": "address",
          "name": "from",
          "type": "address"
        },
        {
          "internalType": "address",
          "name": "to",
          "type": "address"
        },
        {
          "internalType": "uint256",
          "name": "tokenId",
          "type": "uint256"
        }
      ],
      "name": "transferFrom",
      "outputs": [],
      "stateMutability": "nonpayable",
      "type": "function"
    },
    {
      "inputs": [
        {
          "internalType": "address",
          "name": "newOwner",
          "type": "address"
        }
      ],
      "name": "transferOwnership",
      "outputs": [],
      "stateMutability": "nonpayable",
      "type": "function"
    },
    {
      "inputs": [
        {
          "internalType": "string",
          "name": "riddle",
          "type": "string"
        },
        {
          "internalType": "string",
          "name": "answer",
          "type": "string"
        }
      ],
      "name": "addRiddle",
      "outputs": [
        {
          "internalType": "uint256",
          "name": "",
          "type": "uint256"
        }
      ],
      "stateMutability": "nonpayable",
      "type": "function"
    },
    {
      "inputs": [
        {
          "internalType": "uint256",
          "name": "index",
          "type": "uint256"
        }
      ],
      "name": "getRiddle",
      "outputs": [
        {
          "components": [
            {
              "internalType": "string",
              "name": "riddle",
              "type": "string"
            },
            {
              "internalType": "string",
              "name": "answer",
              "type": "string"
            }
          ],
          "internalType": "struct Riddler.Riddle",
          "name": "",
          "type": "tuple"
        }
      ],
      "stateMutability": "view",
      "type": "function"
    },
    {
      "inputs": [
        {
          "internalType": "uint256",
          "name": "idx",
          "type": "uint256"
        },
        {
          "internalType": "string",
          "name": "answer",
          "type": "string"
        },
        {
          "internalType": "string",
          "name": "tokenURI",
          "type": "string"
        }
      ],
      "name": "solve",
      "outputs": [
        {
          "internalType": "bool",
          "name": "",
          "type": "bool"
        }
      ],
      "stateMutability": "nonpayable",
      "type": "function"
    }
  ],
  "bytecode": "0x60806040523480156200001157600080fd5b506040518060400160405280600781526020017f526964646c6572000000000000000000000000000000000000000000000000008152506040518060400160405280600381526020017f52444c0000000000000000000000000000000000000000000000000000000000815250816000908051906020019062000096929190620001a6565b508060019080519060200190620000af929190620001a6565b505050620000d2620000c6620000d860201b60201c565b620000e060201b60201c565b620002bb565b600033905090565b6000600760009054906101000a900473ffffffffffffffffffffffffffffffffffffffff16905081600760006101000a81548173ffffffffffffffffffffffffffffffffffffffff021916908373ffffffffffffffffffffffffffffffffffffffff1602179055508173ffffffffffffffffffffffffffffffffffffffff168173ffffffffffffffffffffffffffffffffffffffff167f8be0079c531659141344cd1fd0a4f28419497f9722a3daafe3b4186f6b6457e060405160405180910390a35050565b828054620001b49062000285565b90600052602060002090601f016020900481019282620001d8576000855562000224565b82601f10620001f357805160ff191683800117855562000224565b8280016001018555821562000224579182015b828111156200022357825182559160200191906001019062000206565b5b50905062000233919062000237565b5090565b5b808211156200025257600081600090555060010162000238565b5090565b7f4e487b7100000000000000000000000000000000000000000000000000000000600052602260045260246000fd5b600060028204905060018216806200029e57607f821691505b60208210811415620002b557620002b462000256565b5b50919050565b6134eb80620002cb6000396000f3fe608060405234801561001057600080fd5b506004361061012c5760003560e01c80638da5cb5b116100ad578063c87b56dd11610071578063c87b56dd14610341578063cccc823814610371578063e985e9c5146103a1578063f2fde38b146103d1578063f933231d146103ed5761012c565b80638da5cb5b1461029d57806395d89b41146102bb578063a22cb465146102d9578063b88d4fde146102f5578063bb54d201146103115761012c565b806323b872dd116100f457806323b872dd146101fb57806342842e0e146102175780636352211e1461023357806370a0823114610263578063715018a6146102935761012c565b806301ffc9a71461013157806306fdde0314610161578063081812fc1461017f578063095ea7b3146101af578063181373cc146101cb575b600080fd5b61014b60048036038101906101469190611fe1565b61041d565b6040516101589190612029565b60405180910390f35b6101696104ff565b60405161017691906120dd565b60405180910390f35b61019960048036038101906101949190612135565b610591565b6040516101a691906121a3565b60405180910390f35b6101c960048036038101906101c491906121ea565b610616565b005b6101e560048036038101906101e09190612135565b61072e565b6040516101f291906122b8565b60405180910390f35b610215600480360381019061021091906122da565b61088e565b005b610231600480360381019061022c91906122da565b6108ee565b005b61024d60048036038101906102489190612135565b61090e565b60405161025a91906121a3565b60405180910390f35b61027d6004803603810190610278919061232d565b6109c0565b60405161028a9190612369565b60405180910390f35b61029b610a78565b005b6102a5610b00565b6040516102b291906121a3565b60405180910390f35b6102c3610b2a565b6040516102d091906120dd565b60405180910390f35b6102f360048036038101906102ee91906123b0565b610bbc565b005b61030f600480360381019061030a9190612525565b610d3d565b005b61032b60048036038101906103269190612649565b610d9f565b6040516103389190612369565b60405180910390f35b61035b60048036038101906103569190612135565b610ead565b60405161036891906120dd565b60405180910390f35b61038b600480360381019061038691906126c1565b610fff565b6040516103989190612029565b60405180910390f35b6103bb60048036038101906103b6919061274c565b61109d565b6040516103c89190612029565b60405180910390f35b6103eb60048036038101906103e6919061232d565b611131565b005b61040760048036038101906104029190612135565b611229565b60405161041491906121a3565b60405180910390f35b60007f80ac58cd000000000000000000000000000000000000000000000000000000007bffffffffffffffffffffffffffffffffffffffffffffffffffffffff1916827bffffffffffffffffffffffffffffffffffffffffffffffffffffffff191614806104e857507f5b5e139f000000000000000000000000000000000000000000000000000000007bffffffffffffffffffffffffffffffffffffffffffffffffffffffff1916827bffffffffffffffffffffffffffffffffffffffffffffffffffffffff1916145b806104f857506104f78261125c565b5b9050919050565b60606000805461050e906127bb565b80601f016020809104026020016040519081016040528092919081815260200182805461053a906127bb565b80156105875780601f1061055c57610100808354040283529160200191610587565b820191906000526020600020905b81548152906001019060200180831161056a57829003601f168201915b5050505050905090565b600061059c826112c6565b6105db576040517f08c379a00000000000000000000000000000000000000000000000000000000081526004016105d29061285f565b60405180910390fd5b6004600083815260200190815260200160002060009054906101000a900473ffffffffffffffffffffffffffffffffffffffff169050919050565b60006106218261090e565b90508073ffffffffffffffffffffffffffffffffffffffff168373ffffffffffffffffffffffffffffffffffffffff161415610692576040517f08c379a0000000000000000000000000000000000000000000000000000000008152600401610689906128f1565b60405180910390fd5b8073ffffffffffffffffffffffffffffffffffffffff166106b1611332565b73ffffffffffffffffffffffffffffffffffffffff1614806106e057506106df816106da611332565b61109d565b5b61071f576040517f08c379a000000000000000000000000000000000000000000000000000000000815260040161071690612983565b60405180910390fd5b610729838361133a565b505050565b610736611eb8565b6009828154811061074a576107496129a3565b5b9060005260206000209060020201604051806040016040529081600082018054610773906127bb565b80601f016020809104026020016040519081016040528092919081815260200182805461079f906127bb565b80156107ec5780601f106107c1576101008083540402835291602001916107ec565b820191906000526020600020905b8154815290600101906020018083116107cf57829003601f168201915b50505050508152602001600182018054610805906127bb565b80601f0160208091040260200160405190810160405280929190818152602001828054610831906127bb565b801561087e5780601f106108535761010080835404028352916020019161087e565b820191906000526020600020905b81548152906001019060200180831161086157829003601f168201915b5050505050815250509050919050565b61089f610899611332565b826113f3565b6108de576040517f08c379a00000000000000000000000000000000000000000000000000000000081526004016108d590612a44565b60405180910390fd5b6108e98383836114d1565b505050565b61090983838360405180602001604052806000815250610d3d565b505050565b6000806002600084815260200190815260200160002060009054906101000a900473ffffffffffffffffffffffffffffffffffffffff169050600073ffffffffffffffffffffffffffffffffffffffff168173ffffffffffffffffffffffffffffffffffffffff1614156109b7576040517f08c379a00000000000000000000000000000000000000000000000000000000081526004016109ae90612ad6565b60405180910390fd5b80915050919050565b60008073ffffffffffffffffffffffffffffffffffffffff168273ffffffffffffffffffffffffffffffffffffffff161415610a31576040517f08c379a0000000000000000000000000000000000000000000000000000000008152600401610a2890612b68565b60405180910390fd5b600360008373ffffffffffffffffffffffffffffffffffffffff1673ffffffffffffffffffffffffffffffffffffffff168152602001908152602001600020549050919050565b610a80611332565b73ffffffffffffffffffffffffffffffffffffffff16610a9e610b00565b73ffffffffffffffffffffffffffffffffffffffff1614610af4576040517f08c379a0000000000000000000000000000000000000000000000000000000008152600401610aeb90612bd4565b60405180910390fd5b610afe600061172d565b565b6000600760009054906101000a900473ffffffffffffffffffffffffffffffffffffffff16905090565b606060018054610b39906127bb565b80601f0160208091040260200160405190810160405280929190818152602001828054610b65906127bb565b8015610bb25780601f10610b8757610100808354040283529160200191610bb2565b820191906000526020600020905b815481529060010190602001808311610b9557829003601f168201915b5050505050905090565b610bc4611332565b73ffffffffffffffffffffffffffffffffffffffff168273ffffffffffffffffffffffffffffffffffffffff161415610c32576040517f08c379a0000000000000000000000000000000000000000000000000000000008152600401610c2990612c40565b60405180910390fd5b8060056000610c3f611332565b73ffffffffffffffffffffffffffffffffffffffff1673ffffffffffffffffffffffffffffffffffffffff16815260200190815260200160002060008473ffffffffffffffffffffffffffffffffffffffff1673ffffffffffffffffffffffffffffffffffffffff16815260200190815260200160002060006101000a81548160ff0219169083151502179055508173ffffffffffffffffffffffffffffffffffffffff16610cec611332565b73ffffffffffffffffffffffffffffffffffffffff167f17307eab39ab6107e8899845ad3d59bd9653f200f220920489ca2b5937696c3183604051610d319190612029565b60405180910390a35050565b610d4e610d48611332565b836113f3565b610d8d576040517f08c379a0000000000000000000000000000000000000000000000000000000008152600401610d8490612a44565b60405180910390fd5b610d99848484846117f3565b50505050565b6000610da9611332565b73ffffffffffffffffffffffffffffffffffffffff16610dc7610b00565b73ffffffffffffffffffffffffffffffffffffffff1614610e1d576040517f08c379a0000000000000000000000000000000000000000000000000000000008152600401610e1490612bd4565b60405180910390fd5b6000604051806040016040528085815260200184815250905060098190806001815401808255809150506001900390600052602060002090600202016000909190919091506000820151816000019080519060200190610e7e929190611ed2565b506020820151816001019080519060200190610e9b929190611ed2565b50505060098054905091505092915050565b6060610eb8826112c6565b610ef7576040517f08c379a0000000000000000000000000000000000000000000000000000000008152600401610eee90612cd2565b60405180910390fd5b6000600660008481526020019081526020016000208054610f17906127bb565b80601f0160208091040260200160405190810160405280929190818152602001828054610f43906127bb565b8015610f905780601f10610f6557610100808354040283529160200191610f90565b820191906000526020600020905b815481529060010190602001808311610f7357829003601f168201915b505050505090506000610fa161184f565b9050600081511415610fb7578192505050610ffa565b600082511115610fec578082604051602001610fd4929190612d2e565b60405160208183030381529060405292505050610ffa565b610ff584611866565b925050505b919050565b60008061100b8561072e565b905061101b81602001518561190d565b156110905761102a3386611966565b6110348584611b34565b336008600087815260200190815260200160002060006101000a81548173ffffffffffffffffffffffffffffffffffffffff021916908373ffffffffffffffffffffffffffffffffffffffff1602179055506001915050611096565b60009150505b9392505050565b6000600560008473ffffffffffffffffffffffffffffffffffffffff1673ffffffffffffffffffffffffffffffffffffffff16815260200190815260200160002060008373ffffffffffffffffffffffffffffffffffffffff1673ffffffffffffffffffffffffffffffffffffffff16815260200190815260200160002060009054906101000a900460ff16905092915050565b611139611332565b73ffffffffffffffffffffffffffffffffffffffff16611157610b00565b73ffffffffffffffffffffffffffffffffffffffff16146111ad576040517f08c379a00000000000000000000000000000000000000000000000000000000081526004016111a490612bd4565b60405180910390fd5b600073ffffffffffffffffffffffffffffffffffffffff168173ffffffffffffffffffffffffffffffffffffffff16141561121d576040517f08c379a000000000000000000000000000000000000000000000000000000000815260040161121490612dc4565b60405180910390fd5b6112268161172d565b50565b60086020528060005260406000206000915054906101000a900473ffffffffffffffffffffffffffffffffffffffff1681565b60007f01ffc9a7000000000000000000000000000000000000000000000000000000007bffffffffffffffffffffffffffffffffffffffffffffffffffffffff1916827bffffffffffffffffffffffffffffffffffffffffffffffffffffffff1916149050919050565b60008073ffffffffffffffffffffffffffffffffffffffff166002600084815260200190815260200160002060009054906101000a900473ffffffffffffffffffffffffffffffffffffffff1673ffffffffffffffffffffffffffffffffffffffff1614159050919050565b600033905090565b816004600083815260200190815260200160002060006101000a81548173ffffffffffffffffffffffffffffffffffffffff021916908373ffffffffffffffffffffffffffffffffffffffff160217905550808273ffffffffffffffffffffffffffffffffffffffff166113ad8361090e565b73ffffffffffffffffffffffffffffffffffffffff167f8c5be1e5ebec7d5bd14f71427d1e84f3dd0314c0f7b2291e5b200ac8c7c3b92560405160405180910390a45050565b60006113fe826112c6565b61143d576040517f08c379a000000000000000000000000000000000000000000000000000000000815260040161143490612e56565b60405180910390fd5b60006114488361090e565b90508073ffffffffffffffffffffffffffffffffffffffff168473ffffffffffffffffffffffffffffffffffffffff1614806114b757508373ffffffffffffffffffffffffffffffffffffffff1661149f84610591565b73ffffffffffffffffffffffffffffffffffffffff16145b806114c857506114c7818561109d565b5b91505092915050565b8273ffffffffffffffffffffffffffffffffffffffff166114f18261090e565b73ffffffffffffffffffffffffffffffffffffffff1614611547576040517f08c379a000000000000000000000000000000000000000000000000000000000815260040161153e90612ee8565b60405180910390fd5b600073ffffffffffffffffffffffffffffffffffffffff168273ffffffffffffffffffffffffffffffffffffffff1614156115b7576040517f08c379a00000000000000000000000000000000000000000000000000000000081526004016115ae90612f7a565b60405180910390fd5b6115c2838383611ba8565b6115cd60008261133a565b6001600360008573ffffffffffffffffffffffffffffffffffffffff1673ffffffffffffffffffffffffffffffffffffffff168152602001908152602001600020600082825461161d9190612fc9565b925050819055506001600360008473ffffffffffffffffffffffffffffffffffffffff1673ffffffffffffffffffffffffffffffffffffffff16815260200190815260200160002060008282546116749190612ffd565b92505081905550816002600083815260200190815260200160002060006101000a81548173ffffffffffffffffffffffffffffffffffffffff021916908373ffffffffffffffffffffffffffffffffffffffff160217905550808273ffffffffffffffffffffffffffffffffffffffff168473ffffffffffffffffffffffffffffffffffffffff167fddf252ad1be2c89b69c2b068fc378daa952ba7f163c4a11628f55a4df523b3ef60405160405180910390a4505050565b6000600760009054906101000a900473ffffffffffffffffffffffffffffffffffffffff16905081600760006101000a81548173ffffffffffffffffffffffffffffffffffffffff021916908373ffffffffffffffffffffffffffffffffffffffff1602179055508173ffffffffffffffffffffffffffffffffffffffff168173ffffffffffffffffffffffffffffffffffffffff167f8be0079c531659141344cd1fd0a4f28419497f9722a3daafe3b4186f6b6457e060405160405180910390a35050565b6117fe8484846114d1565b61180a84848484611bad565b611849576040517f08c379a0000000000000000000000000000000000000000000000000000000008152600401611840906130c5565b60405180910390fd5b50505050565b606060405180602001604052806000815250905090565b6060611871826112c6565b6118b0576040517f08c379a00000000000000000000000000000000000000000000000000000000081526004016118a790613157565b60405180910390fd5b60006118ba61184f565b905060008151116118da5760405180602001604052806000815250611905565b806118e484611d44565b6040516020016118f5929190612d2e565b6040516020818303038152906040525b915050919050565b6000816040516020016119209190613177565b60405160208183030381529060405280519060200120836040516020016119479190613177565b6040516020818303038152906040528051906020012014905092915050565b600073ffffffffffffffffffffffffffffffffffffffff168273ffffffffffffffffffffffffffffffffffffffff1614156119d6576040517f08c379a00000000000000000000000000000000000000000000000000000000081526004016119cd906131da565b60405180910390fd5b6119df816112c6565b15611a1f576040517f08c379a0000000000000000000000000000000000000000000000000000000008152600401611a1690613246565b60405180910390fd5b611a2b60008383611ba8565b6001600360008473ffffffffffffffffffffffffffffffffffffffff1673ffffffffffffffffffffffffffffffffffffffff1681526020019081526020016000206000828254611a7b9190612ffd565b92505081905550816002600083815260200190815260200160002060006101000a81548173ffffffffffffffffffffffffffffffffffffffff021916908373ffffffffffffffffffffffffffffffffffffffff160217905550808273ffffffffffffffffffffffffffffffffffffffff16600073ffffffffffffffffffffffffffffffffffffffff167fddf252ad1be2c89b69c2b068fc378daa952ba7f163c4a11628f55a4df523b3ef60405160405180910390a45050565b611b3d826112c6565b611b7c576040517f08c379a0000000000000000000000000000000000000000000000000000000008152600401611b73906132d8565b60405180910390fd5b80600660008481526020019081526020016000209080519060200190611ba3929190611ed2565b505050565b505050565b6000611bce8473ffffffffffffffffffffffffffffffffffffffff16611ea5565b15611d37578373ffffffffffffffffffffffffffffffffffffffff1663150b7a02611bf7611332565b8786866040518563ffffffff1660e01b8152600401611c19949392919061334d565b602060405180830381600087803b158015611c3357600080fd5b505af1925050508015611c6457506040513d601f19601f82011682018060405250810190611c6191906133ae565b60015b611ce7573d8060008114611c94576040519150601f19603f3d011682016040523d82523d6000602084013e611c99565b606091505b50600081511415611cdf576040517f08c379a0000000000000000000000000000000000000000000000000000000008152600401611cd6906130c5565b60405180910390fd5b805181602001fd5b63150b7a0260e01b7bffffffffffffffffffffffffffffffffffffffffffffffffffffffff1916817bffffffffffffffffffffffffffffffffffffffffffffffffffffffff191614915050611d3c565b600190505b949350505050565b60606000821415611d8c576040518060400160405280600181526020017f30000000000000000000000000000000000000000000000000000000000000008152509050611ea0565b600082905060005b60008214611dbe578080611da7906133db565b915050600a82611db79190613453565b9150611d94565b60008167ffffffffffffffff811115611dda57611dd96123fa565b5b6040519080825280601f01601f191660200182016040528015611e0c5781602001600182028036833780820191505090505b5090505b60008514611e9957600182611e259190612fc9565b9150600a85611e349190613484565b6030611e409190612ffd565b60f81b818381518110611e5657611e556129a3565b5b60200101907effffffffffffffffffffffffffffffffffffffffffffffffffffffffffffff1916908160001a905350600a85611e929190613453565b9450611e10565b8093505050505b919050565b600080823b905060008111915050919050565b604051806040016040528060608152602001606081525090565b828054611ede906127bb565b90600052602060002090601f016020900481019282611f005760008555611f47565b82601f10611f1957805160ff1916838001178555611f47565b82800160010185558215611f47579182015b82811115611f46578251825591602001919060010190611f2b565b5b509050611f549190611f58565b5090565b5b80821115611f71576000816000905550600101611f59565b5090565b6000604051905090565b600080fd5b600080fd5b60007fffffffff0000000000000000000000000000000000000000000000000000000082169050919050565b611fbe81611f89565b8114611fc957600080fd5b50565b600081359050611fdb81611fb5565b92915050565b600060208284031215611ff757611ff6611f7f565b5b600061200584828501611fcc565b91505092915050565b60008115159050919050565b6120238161200e565b82525050565b600060208201905061203e600083018461201a565b92915050565b600081519050919050565b600082825260208201905092915050565b60005b8381101561207e578082015181840152602081019050612063565b8381111561208d576000848401525b50505050565b6000601f19601f8301169050919050565b60006120af82612044565b6120b9818561204f565b93506120c9818560208601612060565b6120d281612093565b840191505092915050565b600060208201905081810360008301526120f781846120a4565b905092915050565b6000819050919050565b612112816120ff565b811461211d57600080fd5b50565b60008135905061212f81612109565b92915050565b60006020828403121561214b5761214a611f7f565b5b600061215984828501612120565b91505092915050565b600073ffffffffffffffffffffffffffffffffffffffff82169050919050565b600061218d82612162565b9050919050565b61219d81612182565b82525050565b60006020820190506121b86000830184612194565b92915050565b6121c781612182565b81146121d257600080fd5b50565b6000813590506121e4816121be565b92915050565b6000806040838503121561220157612200611f7f565b5b600061220f858286016121d5565b925050602061222085828601612120565b9150509250929050565b600082825260208201905092915050565b600061224682612044565b612250818561222a565b9350612260818560208601612060565b61226981612093565b840191505092915050565b60006040830160008301518482036000860152612291828261223b565b915050602083015184820360208601526122ab828261223b565b9150508091505092915050565b600060208201905081810360008301526122d28184612274565b905092915050565b6000806000606084860312156122f3576122f2611f7f565b5b6000612301868287016121d5565b9350506020612312868287016121d5565b925050604061232386828701612120565b9150509250925092565b60006020828403121561234357612342611f7f565b5b6000612351848285016121d5565b91505092915050565b612363816120ff565b82525050565b600060208201905061237e600083018461235a565b92915050565b61238d8161200e565b811461239857600080fd5b50565b6000813590506123aa81612384565b92915050565b600080604083850312156123c7576123c6611f7f565b5b60006123d5858286016121d5565b92505060206123e68582860161239b565b9150509250929050565b600080fd5b600080fd5b7f4e487b7100000000000000000000000000000000000000000000000000000000600052604160045260246000fd5b61243282612093565b810181811067ffffffffffffffff82111715612451576124506123fa565b5b80604052505050565b6000612464611f75565b90506124708282612429565b919050565b600067ffffffffffffffff8211156124905761248f6123fa565b5b61249982612093565b9050602081019050919050565b82818337600083830152505050565b60006124c86124c384612475565b61245a565b9050828152602081018484840111156124e4576124e36123f5565b5b6124ef8482856124a6565b509392505050565b600082601f83011261250c5761250b6123f0565b5b813561251c8482602086016124b5565b91505092915050565b6000806000806080858703121561253f5761253e611f7f565b5b600061254d878288016121d5565b945050602061255e878288016121d5565b935050604061256f87828801612120565b925050606085013567ffffffffffffffff8111156125905761258f611f84565b5b61259c878288016124f7565b91505092959194509250565b600067ffffffffffffffff8211156125c3576125c26123fa565b5b6125cc82612093565b9050602081019050919050565b60006125ec6125e7846125a8565b61245a565b905082815260208101848484011115612608576126076123f5565b5b6126138482856124a6565b509392505050565b600082601f8301126126305761262f6123f0565b5b81356126408482602086016125d9565b91505092915050565b600080604083850312156126605761265f611f7f565b5b600083013567ffffffffffffffff81111561267e5761267d611f84565b5b61268a8582860161261b565b925050602083013567ffffffffffffffff8111156126ab576126aa611f84565b5b6126b78582860161261b565b9150509250929050565b6000806000606084860312156126da576126d9611f7f565b5b60006126e886828701612120565b935050602084013567ffffffffffffffff81111561270957612708611f84565b5b6127158682870161261b565b925050604084013567ffffffffffffffff81111561273657612735611f84565b5b6127428682870161261b565b9150509250925092565b6000806040838503121561276357612762611f7f565b5b6000612771858286016121d5565b9250506020612782858286016121d5565b9150509250929050565b7f4e487b7100000000000000000000000000000000000000000000000000000000600052602260045260246000fd5b600060028204905060018216806127d357607f821691505b602082108114156127e7576127e661278c565b5b50919050565b7f4552433732313a20617070726f76656420717565727920666f72206e6f6e657860008201527f697374656e7420746f6b656e0000000000000000000000000000000000000000602082015250565b6000612849602c8361204f565b9150612854826127ed565b604082019050919050565b600060208201905081810360008301526128788161283c565b9050919050565b7f4552433732313a20617070726f76616c20746f2063757272656e74206f776e6560008201527f7200000000000000000000000000000000000000000000000000000000000000602082015250565b60006128db60218361204f565b91506128e68261287f565b604082019050919050565b6000602082019050818103600083015261290a816128ce565b9050919050565b7f4552433732313a20617070726f76652063616c6c6572206973206e6f74206f7760008201527f6e6572206e6f7220617070726f76656420666f7220616c6c0000000000000000602082015250565b600061296d60388361204f565b915061297882612911565b604082019050919050565b6000602082019050818103600083015261299c81612960565b9050919050565b7f4e487b7100000000000000000000000000000000000000000000000000000000600052603260045260246000fd5b7f4552433732313a207472616e736665722063616c6c6572206973206e6f74206f60008201527f776e6572206e6f7220617070726f766564000000000000000000000000000000602082015250565b6000612a2e60318361204f565b9150612a39826129d2565b604082019050919050565b60006020820190508181036000830152612a5d81612a21565b9050919050565b7f4552433732313a206f776e657220717565727920666f72206e6f6e657869737460008201527f656e7420746f6b656e0000000000000000000000000000000000000000000000602082015250565b6000612ac060298361204f565b9150612acb82612a64565b604082019050919050565b60006020820190508181036000830152612aef81612ab3565b9050919050565b7f4552433732313a2062616c616e636520717565727920666f7220746865207a6560008201527f726f206164647265737300000000000000000000000000000000000000000000602082015250565b6000612b52602a8361204f565b9150612b5d82612af6565b604082019050919050565b60006020820190508181036000830152612b8181612b45565b9050919050565b7f4f776e61626c653a2063616c6c6572206973206e6f7420746865206f776e6572600082015250565b6000612bbe60208361204f565b9150612bc982612b88565b602082019050919050565b60006020820190508181036000830152612bed81612bb1565b9050919050565b7f4552433732313a20617070726f766520746f2063616c6c657200000000000000600082015250565b6000612c2a60198361204f565b9150612c3582612bf4565b602082019050919050565b60006020820190508181036000830152612c5981612c1d565b9050919050565b7f45524337323155524953746f726167653a2055524920717565727920666f722060008201527f6e6f6e6578697374656e7420746f6b656e000000000000000000000000000000602082015250565b6000612cbc60318361204f565b9150612cc782612c60565b604082019050919050565b60006020820190508181036000830152612ceb81612caf565b9050919050565b600081905092915050565b6000612d0882612044565b612d128185612cf2565b9350612d22818560208601612060565b80840191505092915050565b6000612d3a8285612cfd565b9150612d468284612cfd565b91508190509392505050565b7f4f776e61626c653a206e6577206f776e657220697320746865207a65726f206160008201527f6464726573730000000000000000000000000000000000000000000000000000602082015250565b6000612dae60268361204f565b9150612db982612d52565b604082019050919050565b60006020820190508181036000830152612ddd81612da1565b9050919050565b7f4552433732313a206f70657261746f7220717565727920666f72206e6f6e657860008201527f697374656e7420746f6b656e0000000000000000000000000000000000000000602082015250565b6000612e40602c8361204f565b9150612e4b82612de4565b604082019050919050565b60006020820190508181036000830152612e6f81612e33565b9050919050565b7f4552433732313a207472616e73666572206f6620746f6b656e2074686174206960008201527f73206e6f74206f776e0000000000000000000000000000000000000000000000602082015250565b6000612ed260298361204f565b9150612edd82612e76565b604082019050919050565b60006020820190508181036000830152612f0181612ec5565b9050919050565b7f4552433732313a207472616e7366657220746f20746865207a65726f2061646460008201527f7265737300000000000000000000000000000000000000000000000000000000602082015250565b6000612f6460248361204f565b9150612f6f82612f08565b604082019050919050565b60006020820190508181036000830152612f9381612f57565b9050919050565b7f4e487b7100000000000000000000000000000000000000000000000000000000600052601160045260246000fd5b6000612fd4826120ff565b9150612fdf836120ff565b925082821015612ff257612ff1612f9a565b5b828203905092915050565b6000613008826120ff565b9150613013836120ff565b9250827fffffffffffffffffffffffffffffffffffffffffffffffffffffffffffffffff0382111561304857613047612f9a565b5b828201905092915050565b7f4552433732313a207472616e7366657220746f206e6f6e20455243373231526560008201527f63656976657220696d706c656d656e7465720000000000000000000000000000602082015250565b60006130af60328361204f565b91506130ba82613053565b604082019050919050565b600060208201905081810360008301526130de816130a2565b9050919050565b7f4552433732314d657461646174613a2055524920717565727920666f72206e6f60008201527f6e6578697374656e7420746f6b656e0000000000000000000000000000000000602082015250565b6000613141602f8361204f565b915061314c826130e5565b604082019050919050565b6000602082019050818103600083015261317081613134565b9050919050565b60006131838284612cfd565b915081905092915050565b7f4552433732313a206d696e7420746f20746865207a65726f2061646472657373600082015250565b60006131c460208361204f565b91506131cf8261318e565b602082019050919050565b600060208201905081810360008301526131f3816131b7565b9050919050565b7f4552433732313a20746f6b656e20616c7265616479206d696e74656400000000600082015250565b6000613230601c8361204f565b915061323b826131fa565b602082019050919050565b6000602082019050818103600083015261325f81613223565b9050919050565b7f45524337323155524953746f726167653a2055524920736574206f66206e6f6e60008201527f6578697374656e7420746f6b656e000000000000000000000000000000000000602082015250565b60006132c2602e8361204f565b91506132cd82613266565b604082019050919050565b600060208201905081810360008301526132f1816132b5565b9050919050565b600081519050919050565b600082825260208201905092915050565b600061331f826132f8565b6133298185613303565b9350613339818560208601612060565b61334281612093565b840191505092915050565b60006080820190506133626000830187612194565b61336f6020830186612194565b61337c604083018561235a565b818103606083015261338e8184613314565b905095945050505050565b6000815190506133a881611fb5565b92915050565b6000602082840312156133c4576133c3611f7f565b5b60006133d284828501613399565b91505092915050565b60006133e6826120ff565b91507fffffffffffffffffffffffffffffffffffffffffffffffffffffffffffffffff82141561341957613418612f9a565b5b600182019050919050565b7f4e487b7100000000000000000000000000000000000000000000000000000000600052601260045260246000fd5b600061345e826120ff565b9150613469836120ff565b92508261347957613478613424565b5b828204905092915050565b600061348f826120ff565b915061349a836120ff565b9250826134aa576134a9613424565b5b82820690509291505056fea26469706673582212209ce5c3caf370efdcc9d5a9053a281fbc932011186ab40e28cf1156b0db01e08f64736f6c63430008090033",
  "immutableReferences": {},
  "source": "// SPDX-License-Identifier: GPL-3.0\n\npragma solidity ^0.8.0;\n\nimport \"@openzeppelin/contracts/access/Ownable.sol\";\nimport \"@openzeppelin/contracts/token/ERC721/extensions/ERC721URIStorage.sol\";\n\ncontract Riddler is ERC721URIStorage, Ownable {\n    \n    struct Riddle {\n        string riddle;\n        string answer;\n    }\n\n    mapping(uint => address) public riddlesSolvedBy;\n    Riddle[] private riddles;\n\n    constructor() \n    ERC721(\"Riddler\", \"RDL\") {}\n    \n    \n    function addRiddle(string memory riddle, string memory answer) \n    public \n    onlyOwner \n    returns (uint){\n        Riddle memory r = Riddle(riddle, answer);\n        riddles.push(r);\n        \n        return riddles.length;\n    }\n    \n    function getRiddle(uint index) \n    public\n    view\n    returns (Riddle memory){\n        return riddles[index];\n    }\n    \n    function solve(uint idx, string memory answer, string memory tokenURI) \n    public\n    returns (bool) {\n        \n        Riddle memory riddle = getRiddle(idx);\n        \n        if (compareStrings(riddle.answer, answer)) {\n            \n            _mint(msg.sender, idx);\n            _setTokenURI(idx, tokenURI);\n            \n            riddlesSolvedBy[idx] = msg.sender;\n            return true;\n        }\n        \n        return false;\n        \n    }\n    \n    \n    function compareStrings(string memory a, string memory b) private pure returns (bool) {\n        return (keccak256(abi.encodePacked((a))) == keccak256(abi.encodePacked((b))));\n    }\n    \n}",
  "sourcePath": "/home/djworth/projects/djworth/riddler/truffle/contracts/Riddler.sol",
  "compiler": {
    "name": "solc",
    "version": "0.8.9+commit.e5eed63a.Emscripten.clang"
  },
  "schemaVersion": "3.4.3",
  "updatedAt": "2021-10-17T23:23:28.160Z",
  "devdoc": {
    "kind": "dev",
    "methods": {
      "approve(address,uint256)": {
        "details": "See {IERC721-approve}."
      },
      "balanceOf(address)": {
        "details": "See {IERC721-balanceOf}."
      },
      "getApproved(uint256)": {
        "details": "See {IERC721-getApproved}."
      },
      "isApprovedForAll(address,address)": {
        "details": "See {IERC721-isApprovedForAll}."
      },
      "name()": {
        "details": "See {IERC721Metadata-name}."
      },
      "owner()": {
        "details": "Returns the address of the current owner."
      },
      "ownerOf(uint256)": {
        "details": "See {IERC721-ownerOf}."
      },
      "renounceOwnership()": {
        "details": "Leaves the contract without owner. It will not be possible to call `onlyOwner` functions anymore. Can only be called by the current owner. NOTE: Renouncing ownership will leave the contract without an owner, thereby removing any functionality that is only available to the owner."
      },
      "safeTransferFrom(address,address,uint256)": {
        "details": "See {IERC721-safeTransferFrom}."
      },
      "safeTransferFrom(address,address,uint256,bytes)": {
        "details": "See {IERC721-safeTransferFrom}."
      },
      "setApprovalForAll(address,bool)": {
        "details": "See {IERC721-setApprovalForAll}."
      },
      "supportsInterface(bytes4)": {
        "details": "See {IERC165-supportsInterface}."
      },
      "symbol()": {
        "details": "See {IERC721Metadata-symbol}."
      },
      "tokenURI(uint256)": {
        "details": "See {IERC721Metadata-tokenURI}."
      },
      "transferFrom(address,address,uint256)": {
        "details": "See {IERC721-transferFrom}."
      },
      "transferOwnership(address)": {
        "details": "Transfers ownership of the contract to a new account (`newOwner`). Can only be called by the current owner."
      }
    },
    "version": 1
  },
  "userdoc": {
    "kind": "user",
    "methods": {},
    "version": 1
  }
}