{
  "contractName": "Riddler",
  "abi": [
    {
      "inputs": [],
      "stateMutability": "nonpayable",
      "type": "constructor"
    },
    {
      "anonymous": false,
      "inputs": [
        {
          "indexed": true,
          "internalType": "address",
          "name": "owner",
          "type": "address"
        },
        {
          "indexed": true,
          "internalType": "address",
          "name": "approved",
          "type": "address"
        },
        {
          "indexed": true,
          "internalType": "uint256",
          "name": "tokenId",
          "type": "uint256"
        }
      ],
      "name": "Approval",
      "type": "event"
    },
    {
      "anonymous": false,
      "inputs": [
        {
          "indexed": true,
          "internalType": "address",
          "name": "owner",
          "type": "address"
        },
        {
          "indexed": true,
          "internalType": "address",
          "name": "operator",
          "type": "address"
        },
        {
          "indexed": false,
          "internalType": "bool",
          "name": "approved",
          "type": "bool"
        }
      ],
      "name": "ApprovalForAll",
      "type": "event"
    },
    {
      "anonymous": false,
      "inputs": [
        {
          "indexed": true,
          "internalType": "address",
          "name": "previousOwner",
          "type": "address"
        },
        {
          "indexed": true,
          "internalType": "address",
          "name": "newOwner",
          "type": "address"
        }
      ],
      "name": "OwnershipTransferred",
      "type": "event"
    },
    {
      "anonymous": false,
      "inputs": [
        {
          "indexed": true,
          "internalType": "address",
          "name": "from",
          "type": "address"
        },
        {
          "indexed": true,
          "internalType": "address",
          "name": "to",
          "type": "address"
        },
        {
          "indexed": true,
          "internalType": "uint256",
          "name": "tokenId",
          "type": "uint256"
        }
      ],
      "name": "Transfer",
      "type": "event"
    },
    {
      "inputs": [
        {
          "internalType": "address",
          "name": "to",
          "type": "address"
        },
        {
          "internalType": "uint256",
          "name": "tokenId",
          "type": "uint256"
        }
      ],
      "name": "approve",
      "outputs": [],
      "stateMutability": "nonpayable",
      "type": "function"
    },
    {
      "inputs": [
        {
          "internalType": "address",
          "name": "owner",
          "type": "address"
        }
      ],
      "name": "balanceOf",
      "outputs": [
        {
          "internalType": "uint256",
          "name": "",
          "type": "uint256"
        }
      ],
      "stateMutability": "view",
      "type": "function"
    },
    {
      "inputs": [
        {
          "internalType": "uint256",
          "name": "tokenId",
          "type": "uint256"
        }
      ],
      "name": "getApproved",
      "outputs": [
        {
          "internalType": "address",
          "name": "",
          "type": "address"
        }
      ],
      "stateMutability": "view",
      "type": "function"
    },
    {
      "inputs": [
        {
          "internalType": "address",
          "name": "owner",
          "type": "address"
        },
        {
          "internalType": "address",
          "name": "operator",
          "type": "address"
        }
      ],
      "name": "isApprovedForAll",
      "outputs": [
        {
          "internalType": "bool",
          "name": "",
          "type": "bool"
        }
      ],
      "stateMutability": "view",
      "type": "function"
    },
    {
      "inputs": [],
      "name": "name",
      "outputs": [
        {
          "internalType": "string",
          "name": "",
          "type": "string"
        }
      ],
      "stateMutability": "view",
      "type": "function"
    },
    {
      "inputs": [],
      "name": "owner",
      "outputs": [
        {
          "internalType": "address",
          "name": "",
          "type": "address"
        }
      ],
      "stateMutability": "view",
      "type": "function"
    },
    {
      "inputs": [
        {
          "internalType": "uint256",
          "name": "tokenId",
          "type": "uint256"
        }
      ],
      "name": "ownerOf",
      "outputs": [
        {
          "internalType": "address",
          "name": "",
          "type": "address"
        }
      ],
      "stateMutability": "view",
      "type": "function"
    },
    {
      "inputs": [],
      "name": "renounceOwnership",
      "outputs": [],
      "stateMutability": "nonpayable",
      "type": "function"
    },
    {
      "inputs": [],
      "name": "riddleCounter",
      "outputs": [
        {
          "internalType": "uint256",
          "name": "_value",
          "type": "uint256"
        }
      ],
      "stateMutability": "view",
      "type": "function"
    },
    {
      "inputs": [
        {
          "internalType": "address",
          "name": "from",
          "type": "address"
        },
        {
          "internalType": "address",
          "name": "to",
          "type": "address"
        },
        {
          "internalType": "uint256",
          "name": "tokenId",
          "type": "uint256"
        }
      ],
      "name": "safeTransferFrom",
      "outputs": [],
      "stateMutability": "nonpayable",
      "type": "function"
    },
    {
      "inputs": [
        {
          "internalType": "address",
          "name": "from",
          "type": "address"
        },
        {
          "internalType": "address",
          "name": "to",
          "type": "address"
        },
        {
          "internalType": "uint256",
          "name": "tokenId",
          "type": "uint256"
        },
        {
          "internalType": "bytes",
          "name": "_data",
          "type": "bytes"
        }
      ],
      "name": "safeTransferFrom",
      "outputs": [],
      "stateMutability": "nonpayable",
      "type": "function"
    },
    {
      "inputs": [
        {
          "internalType": "address",
          "name": "operator",
          "type": "address"
        },
        {
          "internalType": "bool",
          "name": "approved",
          "type": "bool"
        }
      ],
      "name": "setApprovalForAll",
      "outputs": [],
      "stateMutability": "nonpayable",
      "type": "function"
    },
    {
      "inputs": [
        {
          "internalType": "bytes4",
          "name": "interfaceId",
          "type": "bytes4"
        }
      ],
      "name": "supportsInterface",
      "outputs": [
        {
          "internalType": "bool",
          "name": "",
          "type": "bool"
        }
      ],
      "stateMutability": "view",
      "type": "function"
    },
    {
      "inputs": [],
      "name": "symbol",
      "outputs": [
        {
          "internalType": "string",
          "name": "",
          "type": "string"
        }
      ],
      "stateMutability": "view",
      "type": "function"
    },
    {
      "inputs": [
        {
          "internalType": "uint256",
          "name": "tokenId",
          "type": "uint256"
        }
      ],
      "name": "tokenURI",
      "outputs": [
        {
          "internalType": "string",
          "name": "",
          "type": "string"
        }
      ],
      "stateMutability": "view",
      "type": "function"
    },
    {
      "inputs": [
        {
          "internalType": "address",
          "name": "from",
          "type": "address"
        },
        {
          "internalType": "address",
          "name": "to",
          "type": "address"
        },
        {
          "internalType": "uint256",
          "name": "tokenId",
          "type": "uint256"
        }
      ],
      "name": "transferFrom",
      "outputs": [],
      "stateMutability": "nonpayable",
      "type": "function"
    },
    {
      "inputs": [
        {
          "internalType": "address",
          "name": "newOwner",
          "type": "address"
        }
      ],
      "name": "transferOwnership",
      "outputs": [],
      "stateMutability": "nonpayable",
      "type": "function"
    },
    {
      "inputs": [
        {
          "internalType": "uint256",
          "name": "id",
          "type": "uint256"
        },
        {
          "internalType": "string",
          "name": "tokenURI",
          "type": "string"
        },
        {
          "internalType": "string",
          "name": "riddle",
          "type": "string"
        },
        {
          "internalType": "string",
          "name": "answer",
          "type": "string"
        }
      ],
      "name": "addRiddle",
      "outputs": [
        {
          "internalType": "bool",
          "name": "",
          "type": "bool"
        }
      ],
      "stateMutability": "nonpayable",
      "type": "function"
    },
    {
      "inputs": [
        {
          "internalType": "uint256",
          "name": "index",
          "type": "uint256"
        }
      ],
      "name": "getRiddle",
      "outputs": [
        {
          "internalType": "string",
          "name": "",
          "type": "string"
        }
      ],
      "stateMutability": "view",
      "type": "function"
    },
    {
      "inputs": [],
      "name": "numOfRiddles",
      "outputs": [
        {
          "internalType": "uint256",
          "name": "",
          "type": "uint256"
        }
      ],
      "stateMutability": "view",
      "type": "function"
    },
    {
      "inputs": [
        {
          "internalType": "uint256",
          "name": "id",
          "type": "uint256"
        }
      ],
      "name": "hasRiddleBeenSolved",
      "outputs": [
        {
          "internalType": "bool",
          "name": "",
          "type": "bool"
        }
      ],
      "stateMutability": "view",
      "type": "function"
    },
    {
      "inputs": [
        {
          "internalType": "uint256",
          "name": "id",
          "type": "uint256"
        },
        {
          "internalType": "string",
          "name": "answer",
          "type": "string"
        }
      ],
      "name": "solve",
      "outputs": [
        {
          "internalType": "bool",
          "name": "",
          "type": "bool"
        }
      ],
      "stateMutability": "payable",
      "type": "function"
    }
  ],
  "bytecode": "0x60806040523480156200001157600080fd5b506040518060400160405280600781526020017f526964646c6572000000000000000000000000000000000000000000000000008152506040518060400160405280600381526020017f52444c0000000000000000000000000000000000000000000000000000000000815250816000908051906020019062000096929190620001a6565b508060019080519060200190620000af929190620001a6565b505050620000d2620000c6620000d860201b60201c565b620000e060201b60201c565b620002bb565b600033905090565b6000600760009054906101000a900473ffffffffffffffffffffffffffffffffffffffff16905081600760006101000a81548173ffffffffffffffffffffffffffffffffffffffff021916908373ffffffffffffffffffffffffffffffffffffffff1602179055508173ffffffffffffffffffffffffffffffffffffffff168173ffffffffffffffffffffffffffffffffffffffff167f8be0079c531659141344cd1fd0a4f28419497f9722a3daafe3b4186f6b6457e060405160405180910390a35050565b828054620001b49062000285565b90600052602060002090601f016020900481019282620001d8576000855562000224565b82601f10620001f357805160ff191683800117855562000224565b8280016001018555821562000224579182015b828111156200022357825182559160200191906001019062000206565b5b50905062000233919062000237565b5090565b5b808211156200025257600081600090555060010162000238565b5090565b7f4e487b7100000000000000000000000000000000000000000000000000000000600052602260045260246000fd5b600060028204905060018216806200029e57607f821691505b60208210811415620002b557620002b462000256565b5b50919050565b6138d480620002cb6000396000f3fe6080604052600436106101355760003560e01c8063715018a6116100ab578063b88d4fde1161006f578063b88d4fde1461043a578063c87b56dd14610463578063c8a700a3146104a0578063e985e9c5146104dd578063f2fde38b1461051a578063f90d81bc1461054357610135565b8063715018a614610367578063753abe701461037e5780638da5cb5b146103bb57806395d89b41146103e6578063a22cb4651461041157610135565b806323b872dd116100fd57806323b872dd14610245578063387a4e6b1461026e57806342842e0e146102995780635d5cd3d2146102c25780636352211e146102ed57806370a082311461032a57610135565b806301ffc9a71461013a57806306fdde0314610177578063081812fc146101a2578063095ea7b3146101df578063181373cc14610208575b600080fd5b34801561014657600080fd5b50610161600480360381019061015c91906123fa565b610573565b60405161016e9190612442565b60405180910390f35b34801561018357600080fd5b5061018c610655565b60405161019991906124f6565b60405180910390f35b3480156101ae57600080fd5b506101c960048036038101906101c4919061254e565b6106e7565b6040516101d691906125bc565b60405180910390f35b3480156101eb57600080fd5b5061020660048036038101906102019190612603565b61076c565b005b34801561021457600080fd5b5061022f600480360381019061022a919061254e565b610884565b60405161023c91906124f6565b60405180910390f35b34801561025157600080fd5b5061026c60048036038101906102679190612643565b61092c565b005b34801561027a57600080fd5b5061028361098c565b60405161029091906126a5565b60405180910390f35b3480156102a557600080fd5b506102c060048036038101906102bb9190612643565b610998565b005b3480156102ce57600080fd5b506102d76109b8565b6040516102e491906126a5565b60405180910390f35b3480156102f957600080fd5b50610314600480360381019061030f919061254e565b6109c9565b60405161032191906125bc565b60405180910390f35b34801561033657600080fd5b50610351600480360381019061034c91906126c0565b610a7b565b60405161035e91906126a5565b60405180910390f35b34801561037357600080fd5b5061037c610b33565b005b34801561038a57600080fd5b506103a560048036038101906103a0919061254e565b610bbb565b6040516103b29190612442565b60405180910390f35b3480156103c757600080fd5b506103d0610bcf565b6040516103dd91906125bc565b60405180910390f35b3480156103f257600080fd5b506103fb610bf9565b60405161040891906124f6565b60405180910390f35b34801561041d57600080fd5b5061043860048036038101906104339190612719565b610c8b565b005b34801561044657600080fd5b50610461600480360381019061045c919061288e565b610e0c565b005b34801561046f57600080fd5b5061048a6004803603810190610485919061254e565b610e6e565b60405161049791906124f6565b60405180910390f35b3480156104ac57600080fd5b506104c760048036038101906104c291906129b2565b610fc0565b6040516104d49190612442565b60405180910390f35b3480156104e957600080fd5b5061050460048036038101906104ff9190612a6d565b6110f2565b6040516105119190612442565b60405180910390f35b34801561052657600080fd5b50610541600480360381019061053c91906126c0565b611186565b005b61055d60048036038101906105589190612aad565b61127e565b60405161056a9190612442565b60405180910390f35b60007f80ac58cd000000000000000000000000000000000000000000000000000000007bffffffffffffffffffffffffffffffffffffffffffffffffffffffff1916827bffffffffffffffffffffffffffffffffffffffffffffffffffffffff1916148061063e57507f5b5e139f000000000000000000000000000000000000000000000000000000007bffffffffffffffffffffffffffffffffffffffffffffffffffffffff1916827bffffffffffffffffffffffffffffffffffffffffffffffffffffffff1916145b8061064e575061064d82611500565b5b9050919050565b60606000805461066490612b38565b80601f016020809104026020016040519081016040528092919081815260200182805461069090612b38565b80156106dd5780601f106106b2576101008083540402835291602001916106dd565b820191906000526020600020905b8154815290600101906020018083116106c057829003601f168201915b5050505050905090565b60006106f28261156a565b610731576040517f08c379a000000000000000000000000000000000000000000000000000000000815260040161072890612bdc565b60405180910390fd5b6004600083815260200190815260200160002060009054906101000a900473ffffffffffffffffffffffffffffffffffffffff169050919050565b6000610777826109c9565b90508073ffffffffffffffffffffffffffffffffffffffff168373ffffffffffffffffffffffffffffffffffffffff1614156107e8576040517f08c379a00000000000000000000000000000000000000000000000000000000081526004016107df90612c6e565b60405180910390fd5b8073ffffffffffffffffffffffffffffffffffffffff166108076115d6565b73ffffffffffffffffffffffffffffffffffffffff1614806108365750610835816108306115d6565b6110f2565b5b610875576040517f08c379a000000000000000000000000000000000000000000000000000000000815260040161086c90612d00565b60405180910390fd5b61087f83836115de565b505050565b60606008600083815260200190815260200160002060020180546108a790612b38565b80601f01602080910402602001604051908101604052809291908181526020018280546108d390612b38565b80156109205780601f106108f557610100808354040283529160200191610920565b820191906000526020600020905b81548152906001019060200180831161090357829003601f168201915b50505050509050919050565b61093d6109376115d6565b82611697565b61097c576040517f08c379a000000000000000000000000000000000000000000000000000000000815260040161097390612d92565b60405180910390fd5b610987838383611775565b505050565b600c8060000154905081565b6109b383838360405180602001604052806000815250610e0c565b505050565b60006109c4600c6119d1565b905090565b6000806002600084815260200190815260200160002060009054906101000a900473ffffffffffffffffffffffffffffffffffffffff169050600073ffffffffffffffffffffffffffffffffffffffff168173ffffffffffffffffffffffffffffffffffffffff161415610a72576040517f08c379a0000000000000000000000000000000000000000000000000000000008152600401610a6990612e24565b60405180910390fd5b80915050919050565b60008073ffffffffffffffffffffffffffffffffffffffff168273ffffffffffffffffffffffffffffffffffffffff161415610aec576040517f08c379a0000000000000000000000000000000000000000000000000000000008152600401610ae390612eb6565b60405180910390fd5b600360008373ffffffffffffffffffffffffffffffffffffffff1673ffffffffffffffffffffffffffffffffffffffff168152602001908152602001600020549050919050565b610b3b6115d6565b73ffffffffffffffffffffffffffffffffffffffff16610b59610bcf565b73ffffffffffffffffffffffffffffffffffffffff1614610baf576040517f08c379a0000000000000000000000000000000000000000000000000000000008152600401610ba690612f22565b60405180910390fd5b610bb960006119df565b565b6000610bc8600983611aa5565b9050919050565b6000600760009054906101000a900473ffffffffffffffffffffffffffffffffffffffff16905090565b606060018054610c0890612b38565b80601f0160208091040260200160405190810160405280929190818152602001828054610c3490612b38565b8015610c815780601f10610c5657610100808354040283529160200191610c81565b820191906000526020600020905b815481529060010190602001808311610c6457829003601f168201915b5050505050905090565b610c936115d6565b73ffffffffffffffffffffffffffffffffffffffff168273ffffffffffffffffffffffffffffffffffffffff161415610d01576040517f08c379a0000000000000000000000000000000000000000000000000000000008152600401610cf890612f8e565b60405180910390fd5b8060056000610d0e6115d6565b73ffffffffffffffffffffffffffffffffffffffff1673ffffffffffffffffffffffffffffffffffffffff16815260200190815260200160002060008473ffffffffffffffffffffffffffffffffffffffff1673ffffffffffffffffffffffffffffffffffffffff16815260200190815260200160002060006101000a81548160ff0219169083151502179055508173ffffffffffffffffffffffffffffffffffffffff16610dbb6115d6565b73ffffffffffffffffffffffffffffffffffffffff167f17307eab39ab6107e8899845ad3d59bd9653f200f220920489ca2b5937696c3183604051610e009190612442565b60405180910390a35050565b610e1d610e176115d6565b83611697565b610e5c576040517f08c379a0000000000000000000000000000000000000000000000000000000008152600401610e5390612d92565b60405180910390fd5b610e6884848484611abf565b50505050565b6060610e798261156a565b610eb8576040517f08c379a0000000000000000000000000000000000000000000000000000000008152600401610eaf90613020565b60405180910390fd5b6000600660008481526020019081526020016000208054610ed890612b38565b80601f0160208091040260200160405190810160405280929190818152602001828054610f0490612b38565b8015610f515780601f10610f2657610100808354040283529160200191610f51565b820191906000526020600020905b815481529060010190602001808311610f3457829003601f168201915b505050505090506000610f62611b1b565b9050600081511415610f78578192505050610fbb565b600082511115610fad578082604051602001610f9592919061307c565b60405160208183030381529060405292505050610fbb565b610fb684611b32565b925050505b919050565b6000610fca6115d6565b73ffffffffffffffffffffffffffffffffffffffff16610fe8610bcf565b73ffffffffffffffffffffffffffffffffffffffff161461103e576040517f08c379a000000000000000000000000000000000000000000000000000000000815260040161103590612f22565b60405180910390fd5b60006040518060800160405280878152602001868152602001858152602001848152509050806008600088815260200190815260200160002060008201518160000155602082015181600101908051906020019061109d9291906122eb565b5060408201518160020190805190602001906110ba9291906122eb565b5060608201518160030190805190602001906110d79291906122eb565b509050506110e5600c611bd9565b6001915050949350505050565b6000600560008473ffffffffffffffffffffffffffffffffffffffff1673ffffffffffffffffffffffffffffffffffffffff16815260200190815260200160002060008373ffffffffffffffffffffffffffffffffffffffff1673ffffffffffffffffffffffffffffffffffffffff16815260200190815260200160002060009054906101000a900460ff16905092915050565b61118e6115d6565b73ffffffffffffffffffffffffffffffffffffffff166111ac610bcf565b73ffffffffffffffffffffffffffffffffffffffff1614611202576040517f08c379a00000000000000000000000000000000000000000000000000000000081526004016111f990612f22565b60405180910390fd5b600073ffffffffffffffffffffffffffffffffffffffff168173ffffffffffffffffffffffffffffffffffffffff161415611272576040517f08c379a000000000000000000000000000000000000000000000000000000000815260040161126990613112565b60405180910390fd5b61127b816119df565b50565b600080151561128e600985611aa5565b1515146112d0576040517f08c379a00000000000000000000000000000000000000000000000000000000081526004016112c79061317e565b60405180910390fd5b6000600860008581526020019081526020016000206040518060800160405290816000820154815260200160018201805461130a90612b38565b80601f016020809104026020016040519081016040528092919081815260200182805461133690612b38565b80156113835780601f1061135857610100808354040283529160200191611383565b820191906000526020600020905b81548152906001019060200180831161136657829003601f168201915b5050505050815260200160028201805461139c90612b38565b80601f01602080910402602001604051908101604052809291908181526020018280546113c890612b38565b80156114155780601f106113ea57610100808354040283529160200191611415565b820191906000526020600020905b8154815290600101906020018083116113f857829003601f168201915b5050505050815260200160038201805461142e90612b38565b80601f016020809104026020016040519081016040528092919081815260200182805461145a90612b38565b80156114a75780601f1061147c576101008083540402835291602001916114a7565b820191906000526020600020905b81548152906001019060200180831161148a57829003601f168201915b50505050508152505090506114c0816060015184611bef565b156114f4576114cf3385611c48565b6114dd848260200151611e16565b6114e960098533611e8a565b5060019150506114fa565b60009150505b92915050565b60007f01ffc9a7000000000000000000000000000000000000000000000000000000007bffffffffffffffffffffffffffffffffffffffffffffffffffffffff1916827bffffffffffffffffffffffffffffffffffffffffffffffffffffffff1916149050919050565b60008073ffffffffffffffffffffffffffffffffffffffff166002600084815260200190815260200160002060009054906101000a900473ffffffffffffffffffffffffffffffffffffffff1673ffffffffffffffffffffffffffffffffffffffff1614159050919050565b600033905090565b816004600083815260200190815260200160002060006101000a81548173ffffffffffffffffffffffffffffffffffffffff021916908373ffffffffffffffffffffffffffffffffffffffff160217905550808273ffffffffffffffffffffffffffffffffffffffff16611651836109c9565b73ffffffffffffffffffffffffffffffffffffffff167f8c5be1e5ebec7d5bd14f71427d1e84f3dd0314c0f7b2291e5b200ac8c7c3b92560405160405180910390a45050565b60006116a28261156a565b6116e1576040517f08c379a00000000000000000000000000000000000000000000000000000000081526004016116d890613210565b60405180910390fd5b60006116ec836109c9565b90508073ffffffffffffffffffffffffffffffffffffffff168473ffffffffffffffffffffffffffffffffffffffff16148061175b57508373ffffffffffffffffffffffffffffffffffffffff16611743846106e7565b73ffffffffffffffffffffffffffffffffffffffff16145b8061176c575061176b81856110f2565b5b91505092915050565b8273ffffffffffffffffffffffffffffffffffffffff16611795826109c9565b73ffffffffffffffffffffffffffffffffffffffff16146117eb576040517f08c379a00000000000000000000000000000000000000000000000000000000081526004016117e2906132a2565b60405180910390fd5b600073ffffffffffffffffffffffffffffffffffffffff168273ffffffffffffffffffffffffffffffffffffffff16141561185b576040517f08c379a000000000000000000000000000000000000000000000000000000000815260040161185290613334565b60405180910390fd5b611866838383611ebf565b6118716000826115de565b6001600360008573ffffffffffffffffffffffffffffffffffffffff1673ffffffffffffffffffffffffffffffffffffffff16815260200190815260200160002060008282546118c19190613383565b925050819055506001600360008473ffffffffffffffffffffffffffffffffffffffff1673ffffffffffffffffffffffffffffffffffffffff168152602001908152602001600020600082825461191891906133b7565b92505081905550816002600083815260200190815260200160002060006101000a81548173ffffffffffffffffffffffffffffffffffffffff021916908373ffffffffffffffffffffffffffffffffffffffff160217905550808273ffffffffffffffffffffffffffffffffffffffff168473ffffffffffffffffffffffffffffffffffffffff167fddf252ad1be2c89b69c2b068fc378daa952ba7f163c4a11628f55a4df523b3ef60405160405180910390a4505050565b600081600001549050919050565b6000600760009054906101000a900473ffffffffffffffffffffffffffffffffffffffff16905081600760006101000a81548173ffffffffffffffffffffffffffffffffffffffff021916908373ffffffffffffffffffffffffffffffffffffffff1602179055508173ffffffffffffffffffffffffffffffffffffffff168173ffffffffffffffffffffffffffffffffffffffff167f8be0079c531659141344cd1fd0a4f28419497f9722a3daafe3b4186f6b6457e060405160405180910390a35050565b6000611ab7836000018360001b611ec4565b905092915050565b611aca848484611775565b611ad684848484611ee4565b611b15576040517f08c379a0000000000000000000000000000000000000000000000000000000008152600401611b0c9061347f565b60405180910390fd5b50505050565b606060405180602001604052806000815250905090565b6060611b3d8261156a565b611b7c576040517f08c379a0000000000000000000000000000000000000000000000000000000008152600401611b7390613511565b60405180910390fd5b6000611b86611b1b565b90506000815111611ba65760405180602001604052806000815250611bd1565b80611bb08461207b565b604051602001611bc192919061307c565b6040516020818303038152906040525b915050919050565b6001816000016000828254019250508190555050565b600081604051602001611c029190613531565b6040516020818303038152906040528051906020012083604051602001611c299190613531565b6040516020818303038152906040528051906020012014905092915050565b600073ffffffffffffffffffffffffffffffffffffffff168273ffffffffffffffffffffffffffffffffffffffff161415611cb8576040517f08c379a0000000000000000000000000000000000000000000000000000000008152600401611caf90613594565b60405180910390fd5b611cc18161156a565b15611d01576040517f08c379a0000000000000000000000000000000000000000000000000000000008152600401611cf890613600565b60405180910390fd5b611d0d60008383611ebf565b6001600360008473ffffffffffffffffffffffffffffffffffffffff1673ffffffffffffffffffffffffffffffffffffffff1681526020019081526020016000206000828254611d5d91906133b7565b92505081905550816002600083815260200190815260200160002060006101000a81548173ffffffffffffffffffffffffffffffffffffffff021916908373ffffffffffffffffffffffffffffffffffffffff160217905550808273ffffffffffffffffffffffffffffffffffffffff16600073ffffffffffffffffffffffffffffffffffffffff167fddf252ad1be2c89b69c2b068fc378daa952ba7f163c4a11628f55a4df523b3ef60405160405180910390a45050565b611e1f8261156a565b611e5e576040517f08c379a0000000000000000000000000000000000000000000000000000000008152600401611e5590613692565b60405180910390fd5b80600660008481526020019081526020016000209080519060200190611e859291906122eb565b505050565b6000611eb6846000018460001b8473ffffffffffffffffffffffffffffffffffffffff1660001b6121dc565b90509392505050565b505050565b6000611edc828460000161221790919063ffffffff16565b905092915050565b6000611f058473ffffffffffffffffffffffffffffffffffffffff1661222e565b1561206e578373ffffffffffffffffffffffffffffffffffffffff1663150b7a02611f2e6115d6565b8786866040518563ffffffff1660e01b8152600401611f509493929190613707565b602060405180830381600087803b158015611f6a57600080fd5b505af1925050508015611f9b57506040513d601f19601f82011682018060405250810190611f989190613768565b60015b61201e573d8060008114611fcb576040519150601f19603f3d011682016040523d82523d6000602084013e611fd0565b606091505b50600081511415612016576040517f08c379a000000000000000000000000000000000000000000000000000000000815260040161200d9061347f565b60405180910390fd5b805181602001fd5b63150b7a0260e01b7bffffffffffffffffffffffffffffffffffffffffffffffffffffffff1916817bffffffffffffffffffffffffffffffffffffffffffffffffffffffff191614915050612073565b600190505b949350505050565b606060008214156120c3576040518060400160405280600181526020017f300000000000000000000000000000000000000000000000000000000000000081525090506121d7565b600082905060005b600082146120f55780806120de90613795565b915050600a826120ee919061380d565b91506120cb565b60008167ffffffffffffffff81111561211157612110612763565b5b6040519080825280601f01601f1916602001820160405280156121435781602001600182028036833780820191505090505b5090505b600085146121d05760018261215c9190613383565b9150600a8561216b919061383e565b603061217791906133b7565b60f81b81838151811061218d5761218c61386f565b5b60200101907effffffffffffffffffffffffffffffffffffffffffffffffffffffffffffff1916908160001a905350600a856121c9919061380d565b9450612147565b8093505050505b919050565b6000818460020160008581526020019081526020016000208190555061220e838560000161224190919063ffffffff16565b90509392505050565b60006122268360000183612258565b905092915050565b600080823b905060008111915050919050565b6000612250836000018361227b565b905092915050565b600080836001016000848152602001908152602001600020541415905092915050565b60006122878383612258565b6122e05782600001829080600181540180825580915050600190039060005260206000200160009091909190915055826000018054905083600101600084815260200190815260200160002081905550600190506122e5565b600090505b92915050565b8280546122f790612b38565b90600052602060002090601f0160209004810192826123195760008555612360565b82601f1061233257805160ff1916838001178555612360565b82800160010185558215612360579182015b8281111561235f578251825591602001919060010190612344565b5b50905061236d9190612371565b5090565b5b8082111561238a576000816000905550600101612372565b5090565b6000604051905090565b600080fd5b600080fd5b60007fffffffff0000000000000000000000000000000000000000000000000000000082169050919050565b6123d7816123a2565b81146123e257600080fd5b50565b6000813590506123f4816123ce565b92915050565b6000602082840312156124105761240f612398565b5b600061241e848285016123e5565b91505092915050565b60008115159050919050565b61243c81612427565b82525050565b60006020820190506124576000830184612433565b92915050565b600081519050919050565b600082825260208201905092915050565b60005b8381101561249757808201518184015260208101905061247c565b838111156124a6576000848401525b50505050565b6000601f19601f8301169050919050565b60006124c88261245d565b6124d28185612468565b93506124e2818560208601612479565b6124eb816124ac565b840191505092915050565b6000602082019050818103600083015261251081846124bd565b905092915050565b6000819050919050565b61252b81612518565b811461253657600080fd5b50565b60008135905061254881612522565b92915050565b60006020828403121561256457612563612398565b5b600061257284828501612539565b91505092915050565b600073ffffffffffffffffffffffffffffffffffffffff82169050919050565b60006125a68261257b565b9050919050565b6125b68161259b565b82525050565b60006020820190506125d160008301846125ad565b92915050565b6125e08161259b565b81146125eb57600080fd5b50565b6000813590506125fd816125d7565b92915050565b6000806040838503121561261a57612619612398565b5b6000612628858286016125ee565b925050602061263985828601612539565b9150509250929050565b60008060006060848603121561265c5761265b612398565b5b600061266a868287016125ee565b935050602061267b868287016125ee565b925050604061268c86828701612539565b9150509250925092565b61269f81612518565b82525050565b60006020820190506126ba6000830184612696565b92915050565b6000602082840312156126d6576126d5612398565b5b60006126e4848285016125ee565b91505092915050565b6126f681612427565b811461270157600080fd5b50565b600081359050612713816126ed565b92915050565b600080604083850312156127305761272f612398565b5b600061273e858286016125ee565b925050602061274f85828601612704565b9150509250929050565b600080fd5b600080fd5b7f4e487b7100000000000000000000000000000000000000000000000000000000600052604160045260246000fd5b61279b826124ac565b810181811067ffffffffffffffff821117156127ba576127b9612763565b5b80604052505050565b60006127cd61238e565b90506127d98282612792565b919050565b600067ffffffffffffffff8211156127f9576127f8612763565b5b612802826124ac565b9050602081019050919050565b82818337600083830152505050565b600061283161282c846127de565b6127c3565b90508281526020810184848401111561284d5761284c61275e565b5b61285884828561280f565b509392505050565b600082601f83011261287557612874612759565b5b813561288584826020860161281e565b91505092915050565b600080600080608085870312156128a8576128a7612398565b5b60006128b6878288016125ee565b94505060206128c7878288016125ee565b93505060406128d887828801612539565b925050606085013567ffffffffffffffff8111156128f9576128f861239d565b5b61290587828801612860565b91505092959194509250565b600067ffffffffffffffff82111561292c5761292b612763565b5b612935826124ac565b9050602081019050919050565b600061295561295084612911565b6127c3565b9050828152602081018484840111156129715761297061275e565b5b61297c84828561280f565b509392505050565b600082601f83011261299957612998612759565b5b81356129a9848260208601612942565b91505092915050565b600080600080608085870312156129cc576129cb612398565b5b60006129da87828801612539565b945050602085013567ffffffffffffffff8111156129fb576129fa61239d565b5b612a0787828801612984565b935050604085013567ffffffffffffffff811115612a2857612a2761239d565b5b612a3487828801612984565b925050606085013567ffffffffffffffff811115612a5557612a5461239d565b5b612a6187828801612984565b91505092959194509250565b60008060408385031215612a8457612a83612398565b5b6000612a92858286016125ee565b9250506020612aa3858286016125ee565b9150509250929050565b60008060408385031215612ac457612ac3612398565b5b6000612ad285828601612539565b925050602083013567ffffffffffffffff811115612af357612af261239d565b5b612aff85828601612984565b9150509250929050565b7f4e487b7100000000000000000000000000000000000000000000000000000000600052602260045260246000fd5b60006002820490506001821680612b5057607f821691505b60208210811415612b6457612b63612b09565b5b50919050565b7f4552433732313a20617070726f76656420717565727920666f72206e6f6e657860008201527f697374656e7420746f6b656e0000000000000000000000000000000000000000602082015250565b6000612bc6602c83612468565b9150612bd182612b6a565b604082019050919050565b60006020820190508181036000830152612bf581612bb9565b9050919050565b7f4552433732313a20617070726f76616c20746f2063757272656e74206f776e6560008201527f7200000000000000000000000000000000000000000000000000000000000000602082015250565b6000612c58602183612468565b9150612c6382612bfc565b604082019050919050565b60006020820190508181036000830152612c8781612c4b565b9050919050565b7f4552433732313a20617070726f76652063616c6c6572206973206e6f74206f7760008201527f6e6572206e6f7220617070726f76656420666f7220616c6c0000000000000000602082015250565b6000612cea603883612468565b9150612cf582612c8e565b604082019050919050565b60006020820190508181036000830152612d1981612cdd565b9050919050565b7f4552433732313a207472616e736665722063616c6c6572206973206e6f74206f60008201527f776e6572206e6f7220617070726f766564000000000000000000000000000000602082015250565b6000612d7c603183612468565b9150612d8782612d20565b604082019050919050565b60006020820190508181036000830152612dab81612d6f565b9050919050565b7f4552433732313a206f776e657220717565727920666f72206e6f6e657869737460008201527f656e7420746f6b656e0000000000000000000000000000000000000000000000602082015250565b6000612e0e602983612468565b9150612e1982612db2565b604082019050919050565b60006020820190508181036000830152612e3d81612e01565b9050919050565b7f4552433732313a2062616c616e636520717565727920666f7220746865207a6560008201527f726f206164647265737300000000000000000000000000000000000000000000602082015250565b6000612ea0602a83612468565b9150612eab82612e44565b604082019050919050565b60006020820190508181036000830152612ecf81612e93565b9050919050565b7f4f776e61626c653a2063616c6c6572206973206e6f7420746865206f776e6572600082015250565b6000612f0c602083612468565b9150612f1782612ed6565b602082019050919050565b60006020820190508181036000830152612f3b81612eff565b9050919050565b7f4552433732313a20617070726f766520746f2063616c6c657200000000000000600082015250565b6000612f78601983612468565b9150612f8382612f42565b602082019050919050565b60006020820190508181036000830152612fa781612f6b565b9050919050565b7f45524337323155524953746f726167653a2055524920717565727920666f722060008201527f6e6f6e6578697374656e7420746f6b656e000000000000000000000000000000602082015250565b600061300a603183612468565b915061301582612fae565b604082019050919050565b6000602082019050818103600083015261303981612ffd565b9050919050565b600081905092915050565b60006130568261245d565b6130608185613040565b9350613070818560208601612479565b80840191505092915050565b6000613088828561304b565b9150613094828461304b565b91508190509392505050565b7f4f776e61626c653a206e6577206f776e657220697320746865207a65726f206160008201527f6464726573730000000000000000000000000000000000000000000000000000602082015250565b60006130fc602683612468565b9150613107826130a0565b604082019050919050565b6000602082019050818103600083015261312b816130ef565b9050919050565b7f526964646c652068617320616c7265616479206265656e20736f6c7665640000600082015250565b6000613168601e83612468565b915061317382613132565b602082019050919050565b600060208201905081810360008301526131978161315b565b9050919050565b7f4552433732313a206f70657261746f7220717565727920666f72206e6f6e657860008201527f697374656e7420746f6b656e0000000000000000000000000000000000000000602082015250565b60006131fa602c83612468565b91506132058261319e565b604082019050919050565b60006020820190508181036000830152613229816131ed565b9050919050565b7f4552433732313a207472616e73666572206f6620746f6b656e2074686174206960008201527f73206e6f74206f776e0000000000000000000000000000000000000000000000602082015250565b600061328c602983612468565b915061329782613230565b604082019050919050565b600060208201905081810360008301526132bb8161327f565b9050919050565b7f4552433732313a207472616e7366657220746f20746865207a65726f2061646460008201527f7265737300000000000000000000000000000000000000000000000000000000602082015250565b600061331e602483612468565b9150613329826132c2565b604082019050919050565b6000602082019050818103600083015261334d81613311565b9050919050565b7f4e487b7100000000000000000000000000000000000000000000000000000000600052601160045260246000fd5b600061338e82612518565b915061339983612518565b9250828210156133ac576133ab613354565b5b828203905092915050565b60006133c282612518565b91506133cd83612518565b9250827fffffffffffffffffffffffffffffffffffffffffffffffffffffffffffffffff0382111561340257613401613354565b5b828201905092915050565b7f4552433732313a207472616e7366657220746f206e6f6e20455243373231526560008201527f63656976657220696d706c656d656e7465720000000000000000000000000000602082015250565b6000613469603283612468565b91506134748261340d565b604082019050919050565b600060208201905081810360008301526134988161345c565b9050919050565b7f4552433732314d657461646174613a2055524920717565727920666f72206e6f60008201527f6e6578697374656e7420746f6b656e0000000000000000000000000000000000602082015250565b60006134fb602f83612468565b91506135068261349f565b604082019050919050565b6000602082019050818103600083015261352a816134ee565b9050919050565b600061353d828461304b565b915081905092915050565b7f4552433732313a206d696e7420746f20746865207a65726f2061646472657373600082015250565b600061357e602083612468565b915061358982613548565b602082019050919050565b600060208201905081810360008301526135ad81613571565b9050919050565b7f4552433732313a20746f6b656e20616c7265616479206d696e74656400000000600082015250565b60006135ea601c83612468565b91506135f5826135b4565b602082019050919050565b60006020820190508181036000830152613619816135dd565b9050919050565b7f45524337323155524953746f726167653a2055524920736574206f66206e6f6e60008201527f6578697374656e7420746f6b656e000000000000000000000000000000000000602082015250565b600061367c602e83612468565b915061368782613620565b604082019050919050565b600060208201905081810360008301526136ab8161366f565b9050919050565b600081519050919050565b600082825260208201905092915050565b60006136d9826136b2565b6136e381856136bd565b93506136f3818560208601612479565b6136fc816124ac565b840191505092915050565b600060808201905061371c60008301876125ad565b61372960208301866125ad565b6137366040830185612696565b818103606083015261374881846136ce565b905095945050505050565b600081519050613762816123ce565b92915050565b60006020828403121561377e5761377d612398565b5b600061378c84828501613753565b91505092915050565b60006137a082612518565b91507fffffffffffffffffffffffffffffffffffffffffffffffffffffffffffffffff8214156137d3576137d2613354565b5b600182019050919050565b7f4e487b7100000000000000000000000000000000000000000000000000000000600052601260045260246000fd5b600061381882612518565b915061382383612518565b925082613833576138326137de565b5b828204905092915050565b600061384982612518565b915061385483612518565b925082613864576138636137de565b5b828206905092915050565b7f4e487b7100000000000000000000000000000000000000000000000000000000600052603260045260246000fdfea26469706673582212202d4e855c0921e351b1b44614db1f283cad4a8a8e202c34e3d7ac7abfc85b4ea364736f6c63430008090033",
  "immutableReferences": {},
  "source": "// SPDX-License-Identifier: GPL-3.0\n\npragma solidity ^0.8.0;\n\nimport \"@openzeppelin/contracts/utils/Counters.sol\";\nimport \"@openzeppelin/contracts/utils/structs/EnumerableMap.sol\";\nimport \"@openzeppelin/contracts/access/Ownable.sol\";\nimport \"@openzeppelin/contracts/token/ERC721/extensions/ERC721URIStorage.sol\";\n\ncontract Riddler is ERC721URIStorage, Ownable {\n\n    using EnumerableMap for EnumerableMap.UintToAddressMap;\n    using Counters for Counters.Counter;\n    \n    struct Riddle {\n        uint id;\n        string tokenURI;\n        string riddle;\n        string answer;\n    }\n\n    mapping(uint => Riddle) private riddles;\n    EnumerableMap.UintToAddressMap private riddlesSolvedBy;\n    Counters.Counter public riddleCounter;\n\n    constructor() \n    ERC721(\"Riddler\", \"RDL\") {}\n        \n    function addRiddle(uint id, string memory tokenURI, string memory riddle, string memory answer) \n    public \n    onlyOwner \n    returns (bool){\n        Riddle memory r = Riddle(id, tokenURI, riddle, answer);\n        riddles[id] = r;\n        Counters.increment(riddleCounter);\n        \n        return true;\n    }\n    \n    function getRiddle(uint index) \n    public\n    view\n    returns (string memory){\n        return riddles[index].riddle;\n    }\n\n    function numOfRiddles()\n    public\n    view\n    returns (uint256) {\n        return Counters.current(riddleCounter);\n    }\n\n    function hasRiddleBeenSolved(uint id)\n    public\n    view\n    returns (bool) {\n        return EnumerableMap.contains(riddlesSolvedBy, id);\n    }\n    \n    function solve(uint id, string memory answer) \n    payable \n    public\n    returns (bool) {\n        \n        require(EnumerableMap.contains(riddlesSolvedBy, id) == false, \"Riddle has already been solved\");\n\n        Riddle memory riddle = riddles[id];\n        \n        if (compareStrings(riddle.answer, answer)) {\n            \n            _mint(msg.sender, id);\n            _setTokenURI(id, riddle.tokenURI);\n            \n            EnumerableMap.set(riddlesSolvedBy, id, msg.sender);\n            return true;\n        }\n        \n        return false;\n    }\n    \n    function compareStrings(string memory a, string memory b) private pure returns (bool) {\n        return (keccak256(abi.encodePacked((a))) == keccak256(abi.encodePacked((b))));\n    }\n}",
  "sourcePath": "/home/djworth/projects/djworth/riddler/truffle/contracts/Riddler.sol",
  "compiler": {
    "name": "solc",
    "version": "0.8.9+commit.e5eed63a.Emscripten.clang"
  },
  "schemaVersion": "3.4.3",
  "updatedAt": "2021-10-18T12:52:07.410Z",
  "devdoc": {
    "kind": "dev",
    "methods": {
      "approve(address,uint256)": {
        "details": "See {IERC721-approve}."
      },
      "balanceOf(address)": {
        "details": "See {IERC721-balanceOf}."
      },
      "getApproved(uint256)": {
        "details": "See {IERC721-getApproved}."
      },
      "isApprovedForAll(address,address)": {
        "details": "See {IERC721-isApprovedForAll}."
      },
      "name()": {
        "details": "See {IERC721Metadata-name}."
      },
      "owner()": {
        "details": "Returns the address of the current owner."
      },
      "ownerOf(uint256)": {
        "details": "See {IERC721-ownerOf}."
      },
      "renounceOwnership()": {
        "details": "Leaves the contract without owner. It will not be possible to call `onlyOwner` functions anymore. Can only be called by the current owner. NOTE: Renouncing ownership will leave the contract without an owner, thereby removing any functionality that is only available to the owner."
      },
      "safeTransferFrom(address,address,uint256)": {
        "details": "See {IERC721-safeTransferFrom}."
      },
      "safeTransferFrom(address,address,uint256,bytes)": {
        "details": "See {IERC721-safeTransferFrom}."
      },
      "setApprovalForAll(address,bool)": {
        "details": "See {IERC721-setApprovalForAll}."
      },
      "supportsInterface(bytes4)": {
        "details": "See {IERC165-supportsInterface}."
      },
      "symbol()": {
        "details": "See {IERC721Metadata-symbol}."
      },
      "tokenURI(uint256)": {
        "details": "See {IERC721Metadata-tokenURI}."
      },
      "transferFrom(address,address,uint256)": {
        "details": "See {IERC721-transferFrom}."
      },
      "transferOwnership(address)": {
        "details": "Transfers ownership of the contract to a new account (`newOwner`). Can only be called by the current owner."
      }
    },
    "version": 1
  },
  "userdoc": {
    "kind": "user",
    "methods": {},
    "version": 1
  }
}